:100000000C942A000C942F040C9458040C94810432
:100010000C9447000C9447000C9447000C94470044
:100020000C9447000C9447000C9430050C94070581
:100030000C9447000C9447000C9447000C94470024
:100040000C9447000C9447000C9447000C94470014
:100050000C94470011241FBECFE5D8E0DEBFCDBF12
:1000600010E0A0E6B0E0E4EDFAE002C005900D92E9
:10007000A238B107D9F720E0A2E8B0E001C01D9294
:10008000AF38B207E1F70E94A6010C9468050C9402
:10009000000080E00E94950181E00E94950182E0CD
:1000A0000E94950188E00E94950189E00E949501D7
:1000B0008AE00E9495010895CF93DF9340E062E0CB
:1000C00080E00E94AA0488E390E00E94FF04C0E060
:1000D000D0E030C080918200813081F182B78111FF
:1000E000FDCF9E013695279536952795A7E3BAE172
:1000F0000E9459050024880F991F001C880F991F22
:10010000001C892F902D44EC59E0849F9001859F1D
:10011000300D949F300D1124C217D30731F481E0C4
:100120000E949E0189E00E949E0188E390E00E9467
:10013000FF042196C83A81E6D80760F20E940205C2
:10014000DF91CF91089540E062E080E00E94AA0430
:1001500088E382BF20E030E00BC0809182008130D4
:1001600059F082B78111FDCF88E382BF2F5F3F4FE7
:10017000283A81E6380788F30E940205089581E055
:10018000809383000E94490080918E00823088F520
:1001900080E00E948C018AE00E948C010E945C0039
:1001A00081E00E94950189E00E94950180E00E9413
:1001B00095018AE00E94950182E00E948C0188E00E
:1001C0000E948C010E94A3000E945C0089E00E94B2
:1001D000950181E00E94950188E00E94950182E0EE
:1001E0000E94950180E00E948C018AE00E948C01AF
:1001F0001EC08230E1F488E00E948C0182E00E94FF
:100200008C010E94A3000E945C0081E00E94950185
:1002100089E00E94950188E00E94950182E00E9499
:10022000950180E00E948C018AE00E948C0181E0AF
:1002300080936000809382001092830008958091E3
:100240008300811102C00E94BF00089510928200B5
:1002500080916000813069F410928E0082E080937A
:10026000600080E00E948C018AE00E948C010E9464
:10027000A30080916000823099F481E080938E0029
:10028000109260000E945C0089E00E94950181E06C
:100290000E94950180E00E9495018AE00E949501EC
:1002A0008091600081110EC082E080938E0083E017
:1002B0008093600082E00E948C0188E00E948C01A3
:1002C0000E94A30080916000833099F481E08093C4
:1002D0008E00809360000E945C0089E00E9495017E
:1002E00081E00E94950182E00E94950188E00E94D1
:1002F0009501089578940E94BC0261E080E00E941C
:10030000CF036FE171E080E00E94A80380E00E94CB
:10031000BD030E942601FDCF61E00E94CD0288232B
:1003200011F081E0089580E0089560E00E94CD0220
:10033000882311F081E0089580E008950E94610310
:10034000882311F081E0089580E008950E947A01E9
:1003500080E090E00895982F9695969596958770F1
:10036000613009F459C020F0623009F4A9C0FCC022
:100370009130C9F028F0923049F19330D1F1F6C0B4
:100380004AB321E030E0B90102C0660F771F8A95B9
:10039000E2F7CB01942F982B9ABB9BB380958923CE
:1003A0008BBB80E0089547B321E030E0B90102C083
:1003B000660F771F8A95E2F7CB01942F982B97BB96
:1003C00098B38095892388BB80E0089544B321E0E9
:1003D00030E0B90102C0660F771F8A95E2F7CB01C2
:1003E000942F982B94BB95B38095892385BB80E08F
:1003F000089541B321E030E0B90102C0660F771FD4
:100400008A95E2F7CB01942F982B91BB92B38095FC
:10041000892382BB80E008959130C9F028F09230A2
:1004200049F19330D1F1A4C04AB321E030E0B901E1
:1004300002C0660F771F8A95E2F7CB018095942F53
:1004400098239ABB9BB389238BBB80E0089547B365
:1004500021E030E0B90102C0660F771F8A95E2F70C
:10046000CB018095942F982397BB98B3892388BBA1
:1004700080E0089544B321E030E0B90102C0660F86
:10048000771F8A95E2F7CB018095942F982394BB30
:1004900095B3892385BB80E0089541B321E030E026
:1004A000B90102C0660F771F8A95E2F7CB018095EC
:1004B000942F982391BB92B3892382BB80E0089547
:1004C0009130C9F028F0923049F19330D1F152C007
:1004D0004AB321E030E0B90102C0660F771F8A9568
:1004E000E2F7CB01962F909594239ABB9BB3892B6F
:1004F0008BBB80E0089547B321E030E0B90102C032
:10050000660F771F8A95E2F7CB01962F909594237B
:1005100097BB98B3892B88BB80E0089544B321E052
:1005200030E0B90102C0660F771F8A95E2F7CB0170
:10053000962F9095942394BB95B3892B85BB80E02F
:10054000089541B321E030E0B90102C0660F771F82
:100550008A95E2F7CB01962F9095942391BB92B3A5
:10056000892B82BB80E0089581E0089581E00895A1
:1005700081E0089581E00895CF9380E0C0E009C054
:10058000EC2FF0E0EF59FF4F60818C2F0E94AB0100
:10059000CF5FC032A8F3CF910895982F9695969586
:1005A00096958770611144C09130A9F028F092307F
:1005B00009F1933071F17FC04BB321E030E0B90114
:1005C00002C0660F771F8A95E2F7CB0180958423DE
:1005D0008BBB80E0089548B321E030E0B90102C050
:1005E000660F771F8A95E2F7CB018095842388BB3D
:1005F00080E0089545B321E030E0B90102C0660F04
:10060000771F8A95E2F7CB018095842385BB80E034
:10061000089542B321E030E0B90102C0660F771FB0
:100620008A95E2F7CB018095842382BB80E0089510
:10063000613009F042C09130A1F028F09230F9F019
:10064000933059F13CC04BB321E030E0B90102C016
:10065000660F771F8A95E2F7CB01842B8BBB80E076
:10066000089548B321E030E0B90102C0660F771F5A
:100670008A95E2F7CB01842B88BB80E0089545B3CF
:1006800021E030E0B90102C0660F771F8A95E2F7DA
:10069000CB01842B85BB80E0089542B321E030E09C
:1006A000B90102C0660F771F8A95E2F7CB01842B50
:1006B00082BB80E0089581E0089581E0089581E0A3
:1006C0000895982F96959695969587709130A1F0FC
:1006D00028F09230F9F0933059F138C04BB321E053
:1006E00030E0B90102C0660F771F8A95E2F7CB01AF
:1006F00084278BBB80E0089548B321E030E0B90146
:1007000002C0660F771F8A95E2F7CB01842788BB6A
:1007100080E0089545B321E030E0B90102C0660FE2
:10072000771F8A95E2F7CB01842785BB80E0089587
:1007300042B321E030E0B90102C0660F771F8A950D
:10074000E2F7CB01842782BB80E0089581E0089521
:10075000813049F018F0823059F008957093890083
:1007600060938800089570938700609386000895D1
:1007700070938500609384000895813041F018F0F3
:10078000823049F008958BB780648BBF08958BB792
:1007900080688BBF08958BB780628BBF08958130CE
:1007A00049F120F0823009F449C00895613069F0C0
:1007B00028F0623089F06330B1F0089585B78E7FFC
:1007C00085BF85B78D7F85BF089585B7816085BF5B
:1007D00085B78D7F85BF089585B78E7F85BF85B727
:1007E000826085BF089585B7816085BF85B78260C7
:1007F00085BF0895613069F028F0623089F0633078
:10080000B1F0089585B78B7F85BF85B7877F85BF9A
:10081000089585B7846085BF85B7877F85BF0895B4
:1008200085B78B7F85BF85B7886085BF089585B7FD
:10083000846085BF85B7886085BF0895623019F0F0
:10084000633029F008C084B78F7B84BF089584B7D4
:10085000806484BF089584B78F7B84BF08951F92FE
:100860000F920FB60F9211242F933F934F935F93E4
:100870006F937F938F939F93AF93BF93EF93FF9368
:10088000E0918800F0918900309709F00995FF9177
:10089000EF91BF91AF919F918F917F916F915F91F8
:1008A0004F913F912F910F900FBE0F901F90189571
:1008B0001F920F920FB60F9211242F933F934F93D5
:1008C0005F936F937F938F939F93AF93BF93EF93B8
:1008D000FF93E0918600F0918700309709F0099529
:1008E000FF91EF91BF91AF919F918F917F916F9108
:1008F0005F914F913F912F910F900FBE0F901F90DE
:1009000018951F920F920FB60F9211242F933F93B9
:100910004F935F936F937F938F939F93AF93BF9307
:10092000EF93FF93E0918400F0918500309709F0F8
:100930000995FF91EF91BF91AF919F918F917F9119
:100940006F915F914F913F912F910F900FBE0F903C
:100950001F901895813071F028F0823099F0833023
:10096000C9F020C083B78F7B83BF83B7877F83BFE6
:1009700080E019C083B7806483BF83B7877F83BF5C
:1009800080E011C083B78F7B83BF83B7886083BF4C
:1009900080E009C083B7806483BF83B7886083BF6A
:1009A00080E001C081E093B7987F93BF93B7692B34
:1009B00063BF413069F028F0423089F04330B1F034
:1009C0001CC093B79F7E93BF93B79F7D93BF08953D
:1009D00093B7906193BF93B79F7D93BF089593B7EB
:1009E0009F7E93BF93B7906293BF089593B7906132
:1009F00093BF93B7906293BF089581E0089582BF3B
:100A000080E0089583B7887F83BF80E008951F92B8
:100A10000F920FB60F9211242F933F934F935F9332
:100A20006F937F938F939F93AF93BF93EF93FF93B6
:100A3000E0918C00F0918D00309709F00995FF91BD
:100A4000EF91BF91AF919F918F917F916F915F9146
:100A50004F913F912F910F900FBE0F901F901895BF
:100A60001F920F920FB60F9211242F933F934F9323
:100A70005F936F937F938F939F93AF93BF93EF9306
:100A8000FF93E0918A00F0918B00309709F009956F
:100A9000FF91EF91BF91AF919F918F917F916F9156
:100AA0005F914F913F912F910F900FBE0F901F902C
:100AB0001895A29FB001B39FC001A39F700D811D27
:100AC0001124911DB29F700D811D1124911D089557
:040AD000F894FFCFC8
:100AD4000100000000000000000000000000000110
:100AE40000000202020000000002000200000000F8
:020AF400000000
:00000001FF
